{
  "_format": "hh-sol-artifact-1",
  "contractName": "MyEpicNFT2",
  "sourceName": "contracts/MyEpicNFT2.sol",
  "abi": [
    {
      "inputs": [],
      "stateMutability": "nonpayable",
      "type": "constructor"
    },
    {
      "anonymous": false,
      "inputs": [
        {
          "indexed": true,
          "internalType": "address",
          "name": "owner",
          "type": "address"
        },
        {
          "indexed": true,
          "internalType": "address",
          "name": "approved",
          "type": "address"
        },
        {
          "indexed": true,
          "internalType": "uint256",
          "name": "tokenId",
          "type": "uint256"
        }
      ],
      "name": "Approval",
      "type": "event"
    },
    {
      "anonymous": false,
      "inputs": [
        {
          "indexed": true,
          "internalType": "address",
          "name": "owner",
          "type": "address"
        },
        {
          "indexed": true,
          "internalType": "address",
          "name": "operator",
          "type": "address"
        },
        {
          "indexed": false,
          "internalType": "bool",
          "name": "approved",
          "type": "bool"
        }
      ],
      "name": "ApprovalForAll",
      "type": "event"
    },
    {
      "anonymous": false,
      "inputs": [
        {
          "indexed": false,
          "internalType": "address",
          "name": "sender",
          "type": "address"
        },
        {
          "indexed": false,
          "internalType": "uint256",
          "name": "tokenId",
          "type": "uint256"
        }
      ],
      "name": "NewEpicNFTMinted",
      "type": "event"
    },
    {
      "anonymous": false,
      "inputs": [
        {
          "indexed": true,
          "internalType": "address",
          "name": "from",
          "type": "address"
        },
        {
          "indexed": true,
          "internalType": "address",
          "name": "to",
          "type": "address"
        },
        {
          "indexed": true,
          "internalType": "uint256",
          "name": "tokenId",
          "type": "uint256"
        }
      ],
      "name": "Transfer",
      "type": "event"
    },
    {
      "inputs": [
        {
          "internalType": "address",
          "name": "to",
          "type": "address"
        },
        {
          "internalType": "uint256",
          "name": "tokenId",
          "type": "uint256"
        }
      ],
      "name": "approve",
      "outputs": [],
      "stateMutability": "nonpayable",
      "type": "function"
    },
    {
      "inputs": [
        {
          "internalType": "address",
          "name": "owner",
          "type": "address"
        }
      ],
      "name": "balanceOf",
      "outputs": [
        {
          "internalType": "uint256",
          "name": "",
          "type": "uint256"
        }
      ],
      "stateMutability": "view",
      "type": "function"
    },
    {
      "inputs": [
        {
          "internalType": "uint256",
          "name": "tokenId",
          "type": "uint256"
        }
      ],
      "name": "getApproved",
      "outputs": [
        {
          "internalType": "address",
          "name": "",
          "type": "address"
        }
      ],
      "stateMutability": "view",
      "type": "function"
    },
    {
      "inputs": [],
      "name": "getTotalNFTsMintedSoFar",
      "outputs": [
        {
          "internalType": "uint256",
          "name": "",
          "type": "uint256"
        }
      ],
      "stateMutability": "view",
      "type": "function"
    },
    {
      "inputs": [
        {
          "internalType": "address",
          "name": "owner",
          "type": "address"
        },
        {
          "internalType": "address",
          "name": "operator",
          "type": "address"
        }
      ],
      "name": "isApprovedForAll",
      "outputs": [
        {
          "internalType": "bool",
          "name": "",
          "type": "bool"
        }
      ],
      "stateMutability": "view",
      "type": "function"
    },
    {
      "inputs": [],
      "name": "makeAnEpicNFT",
      "outputs": [],
      "stateMutability": "nonpayable",
      "type": "function"
    },
    {
      "inputs": [],
      "name": "name",
      "outputs": [
        {
          "internalType": "string",
          "name": "",
          "type": "string"
        }
      ],
      "stateMutability": "view",
      "type": "function"
    },
    {
      "inputs": [
        {
          "internalType": "uint256",
          "name": "tokenId",
          "type": "uint256"
        }
      ],
      "name": "ownerOf",
      "outputs": [
        {
          "internalType": "address",
          "name": "",
          "type": "address"
        }
      ],
      "stateMutability": "view",
      "type": "function"
    },
    {
      "inputs": [
        {
          "internalType": "uint256",
          "name": "tokenId",
          "type": "uint256"
        }
      ],
      "name": "pickRandomColor",
      "outputs": [
        {
          "internalType": "string",
          "name": "",
          "type": "string"
        }
      ],
      "stateMutability": "view",
      "type": "function"
    },
    {
      "inputs": [
        {
          "internalType": "uint256",
          "name": "tokenId",
          "type": "uint256"
        }
      ],
      "name": "pickRandomFirstWord",
      "outputs": [
        {
          "internalType": "string",
          "name": "",
          "type": "string"
        }
      ],
      "stateMutability": "view",
      "type": "function"
    },
    {
      "inputs": [
        {
          "internalType": "uint256",
          "name": "tokenId",
          "type": "uint256"
        }
      ],
      "name": "pickRandomSecondWord",
      "outputs": [
        {
          "internalType": "string",
          "name": "",
          "type": "string"
        }
      ],
      "stateMutability": "view",
      "type": "function"
    },
    {
      "inputs": [
        {
          "internalType": "uint256",
          "name": "tokenId",
          "type": "uint256"
        }
      ],
      "name": "pickRandomThirdWord",
      "outputs": [
        {
          "internalType": "string",
          "name": "",
          "type": "string"
        }
      ],
      "stateMutability": "view",
      "type": "function"
    },
    {
      "inputs": [
        {
          "internalType": "address",
          "name": "from",
          "type": "address"
        },
        {
          "internalType": "address",
          "name": "to",
          "type": "address"
        },
        {
          "internalType": "uint256",
          "name": "tokenId",
          "type": "uint256"
        }
      ],
      "name": "safeTransferFrom",
      "outputs": [],
      "stateMutability": "nonpayable",
      "type": "function"
    },
    {
      "inputs": [
        {
          "internalType": "address",
          "name": "from",
          "type": "address"
        },
        {
          "internalType": "address",
          "name": "to",
          "type": "address"
        },
        {
          "internalType": "uint256",
          "name": "tokenId",
          "type": "uint256"
        },
        {
          "internalType": "bytes",
          "name": "_data",
          "type": "bytes"
        }
      ],
      "name": "safeTransferFrom",
      "outputs": [],
      "stateMutability": "nonpayable",
      "type": "function"
    },
    {
      "inputs": [
        {
          "internalType": "address",
          "name": "operator",
          "type": "address"
        },
        {
          "internalType": "bool",
          "name": "approved",
          "type": "bool"
        }
      ],
      "name": "setApprovalForAll",
      "outputs": [],
      "stateMutability": "nonpayable",
      "type": "function"
    },
    {
      "inputs": [
        {
          "internalType": "bytes4",
          "name": "interfaceId",
          "type": "bytes4"
        }
      ],
      "name": "supportsInterface",
      "outputs": [
        {
          "internalType": "bool",
          "name": "",
          "type": "bool"
        }
      ],
      "stateMutability": "view",
      "type": "function"
    },
    {
      "inputs": [],
      "name": "symbol",
      "outputs": [
        {
          "internalType": "string",
          "name": "",
          "type": "string"
        }
      ],
      "stateMutability": "view",
      "type": "function"
    },
    {
      "inputs": [
        {
          "internalType": "uint256",
          "name": "index",
          "type": "uint256"
        }
      ],
      "name": "tokenByIndex",
      "outputs": [
        {
          "internalType": "uint256",
          "name": "",
          "type": "uint256"
        }
      ],
      "stateMutability": "view",
      "type": "function"
    },
    {
      "inputs": [
        {
          "internalType": "address",
          "name": "owner",
          "type": "address"
        },
        {
          "internalType": "uint256",
          "name": "index",
          "type": "uint256"
        }
      ],
      "name": "tokenOfOwnerByIndex",
      "outputs": [
        {
          "internalType": "uint256",
          "name": "",
          "type": "uint256"
        }
      ],
      "stateMutability": "view",
      "type": "function"
    },
    {
      "inputs": [
        {
          "internalType": "uint256",
          "name": "tokenId",
          "type": "uint256"
        }
      ],
      "name": "tokenURI",
      "outputs": [
        {
          "internalType": "string",
          "name": "",
          "type": "string"
        }
      ],
      "stateMutability": "view",
      "type": "function"
    },
    {
      "inputs": [],
      "name": "totalSupply",
      "outputs": [
        {
          "internalType": "uint256",
          "name": "",
          "type": "uint256"
        }
      ],
      "stateMutability": "view",
      "type": "function"
    },
    {
      "inputs": [
        {
          "internalType": "address",
          "name": "from",
          "type": "address"
        },
        {
          "internalType": "address",
          "name": "to",
          "type": "address"
        },
        {
          "internalType": "uint256",
          "name": "tokenId",
          "type": "uint256"
        }
      ],
      "name": "transferFrom",
      "outputs": [],
      "stateMutability": "nonpayable",
      "type": "function"
    }
  ],
  "bytecode": "0x608060405260405180610100016040528060d381526020016200569560d39139600c90805190602001906200003692919062000ebb565b506040518060800160405280605681526020016200576860569139600d90805190602001906200006892919062000ebb565b506040518060400160405280600d81526020017f3c2f746578743e3c2f7376673e00000000000000000000000000000000000000815250600e9080519060200190620000b692919062000ebb565b50604051806101e001604052806040518060400160405280600881526020017f41726f6d6174696300000000000000000000000000000000000000000000000081525081526020016040518060400160405280600481526020017f46756c6c0000000000000000000000000000000000000000000000000000000081525081526020016040518060400160405280600381526020017f486f74000000000000000000000000000000000000000000000000000000000081525081526020016040518060400160405280600681526020017f476f6c64656e000000000000000000000000000000000000000000000000000081525081526020016040518060400160405280600781526020017f476f75726d65740000000000000000000000000000000000000000000000000081525081526020016040518060400160405280600681526020017f446976696e65000000000000000000000000000000000000000000000000000081525081526020016040518060400160405280600481526020017f526963680000000000000000000000000000000000000000000000000000000081525081526020016040518060400160405280600681526020017f44656c757865000000000000000000000000000000000000000000000000000081525081526020016040518060400160405280600781526020017f5370656369616c0000000000000000000000000000000000000000000000000081525081526020016040518060400160405280600781526020017f436c61737369630000000000000000000000000000000000000000000000000081525081526020016040518060400160405280600981526020017f44656c6963696f7573000000000000000000000000000000000000000000000081525081526020016040518060400160405280600781526020017f456c6567616e740000000000000000000000000000000000000000000000000081525081526020016040518060400160405280600981526020017f486f6d657374796c65000000000000000000000000000000000000000000000081525081526020016040518060400160405280600a81526020017f53617469736679696e670000000000000000000000000000000000000000000081525081526020016040518060400160405280600681526020017f46616d6f75730000000000000000000000000000000000000000000000000000815250815250600f90600f6200044892919062000f4c565b50604051806101e001604052806040518060400160405280600581526020017f4170706c6500000000000000000000000000000000000000000000000000000081525081526020016040518060400160405280600a81526020017f57617465726d656c6f6e0000000000000000000000000000000000000000000081525081526020016040518060400160405280600681526020017f4f72616e6765000000000000000000000000000000000000000000000000000081525081526020016040518060400160405280600481526020017f506561720000000000000000000000000000000000000000000000000000000081525081526020016040518060400160405280600681526020017f436865727279000000000000000000000000000000000000000000000000000081525081526020016040518060400160405280600a81526020017f537472617762657272790000000000000000000000000000000000000000000081525081526020016040518060400160405280600581526020017f477261706500000000000000000000000000000000000000000000000000000081525081526020016040518060400160405280600581526020017f4d616e676f00000000000000000000000000000000000000000000000000000081525081526020016040518060400160405280600b81526020017f506f6d656772616e61746500000000000000000000000000000000000000000081525081526020016040518060400160405280600481526020017f506c756d0000000000000000000000000000000000000000000000000000000081525081526020016040518060400160405280600781526020017f41707269636f740000000000000000000000000000000000000000000000000081525081526020016040518060400160405280600581526020017f4d656c6f6e00000000000000000000000000000000000000000000000000000081525081526020016040518060400160405280600681526020017f42616e616e61000000000000000000000000000000000000000000000000000081525081526020016040518060400160405280600781526020017f436f636f6e75740000000000000000000000000000000000000000000000000081525081526020016040518060400160405280600581526020017f5065616368000000000000000000000000000000000000000000000000000000815250815250601090600f620007da92919062000f4c565b50604051806101e001604052806040518060400160405280600381526020017f506965000000000000000000000000000000000000000000000000000000000081525081526020016040518060400160405280600481526020017f43616b650000000000000000000000000000000000000000000000000000000081525081526020016040518060400160405280600781526020017f43757063616b650000000000000000000000000000000000000000000000000081525081526020016040518060400160405280600681526020017f4d756666696e000000000000000000000000000000000000000000000000000081525081526020016040518060400160405280600481526020017f546172740000000000000000000000000000000000000000000000000000000081525081526020016040518060400160405280600681526020017f436f6f6b6965000000000000000000000000000000000000000000000000000081525081526020016040518060400160405280600581526020017f446f6e757400000000000000000000000000000000000000000000000000000081525081526020016040518060400160405280600681526020017f576166666c65000000000000000000000000000000000000000000000000000081525081526020016040518060400160405280600781526020017f50616e63616b650000000000000000000000000000000000000000000000000081525081526020016040518060400160405280600781526020017f5374727564656c0000000000000000000000000000000000000000000000000081525081526020016040518060400160405280600681526020017f45636c616972000000000000000000000000000000000000000000000000000081525081526020016040518060400160405280600781526020017f43687572726f730000000000000000000000000000000000000000000000000081525081526020016040518060400160405280600981526020017f4d616361726f6f6e73000000000000000000000000000000000000000000000081525081526020016040518060400160405280600581526020017f427265616400000000000000000000000000000000000000000000000000000081525081526020016040518060400160405280600c81526020017f50726f66697465726f6c65730000000000000000000000000000000000000000815250815250601190600f62000b6c92919062000f4c565b506040518060c001604052806040518060400160405280600381526020017f726564000000000000000000000000000000000000000000000000000000000081525081526020016040518060400160405280600781526020017f233038433241380000000000000000000000000000000000000000000000000081525081526020016040518060400160405280600581526020017f626c61636b00000000000000000000000000000000000000000000000000000081525081526020016040518060400160405280600681526020017f79656c6c6f77000000000000000000000000000000000000000000000000000081525081526020016040518060400160405280600481526020017f626c75650000000000000000000000000000000000000000000000000000000081525081526020016040518060400160405280600581526020017f677265656e000000000000000000000000000000000000000000000000000000815250815250601290600662000cea92919062000fb3565b50606460135534801562000cfd57600080fd5b506040518060400160405280600b81526020017f44657373657274204e46540000000000000000000000000000000000000000008152506040518060400160405280600481526020017f444e465400000000000000000000000000000000000000000000000000000000815250816000908051906020019062000d8292919062000ebb565b50806001908051906020019062000d9b92919062000ebb565b50505062000de96040518060400160405280601e81526020017f54686973206973206d79204e465420636f6e74726163742e2057686f6121000081525062000def60201b6200128d1760201c565b620011d4565b62000e8f8160405160240162000e069190620010e8565b6040516020818303038152906040527f41304fac000000000000000000000000000000000000000000000000000000007bffffffffffffffffffffffffffffffffffffffffffffffffffffffff19166020820180517bffffffffffffffffffffffffffffffffffffffffffffffffffffffff838183161783525050505062000e9260201b60201c565b50565b60008151905060006a636f6e736f6c652e6c6f679050602083016000808483855afa5050505050565b82805462000ec9906200115e565b90600052602060002090601f01602090048101928262000eed576000855562000f39565b82601f1062000f0857805160ff191683800117855562000f39565b8280016001018555821562000f39579182015b8281111562000f3857825182559160200191906001019062000f1b565b5b50905062000f4891906200101a565b5090565b82805482825590600052602060002090810192821562000fa0579160200282015b8281111562000f9f57825182908051906020019062000f8e92919062000ebb565b509160200191906001019062000f6d565b5b50905062000faf919062001039565b5090565b82805482825590600052602060002090810192821562001007579160200282015b828111156200100657825182908051906020019062000ff592919062000ebb565b509160200191906001019062000fd4565b5b50905062001016919062001039565b5090565b5b80821115620010355760008160009055506001016200101b565b5090565b5b808211156200105d576000818162001053919062001061565b506001016200103a565b5090565b5080546200106f906200115e565b6000825580601f10620010835750620010a4565b601f016020900490600052602060002090810190620010a391906200101a565b5b50565b6000620010b4826200110c565b620010c0818562001117565b9350620010d281856020860162001128565b620010dd81620011c3565b840191505092915050565b60006020820190508181036000830152620011048184620010a7565b905092915050565b600081519050919050565b600082825260208201905092915050565b60005b83811015620011485780820151818401526020810190506200112b565b8381111562001158576000848401525b50505050565b600060028204905060018216806200117757607f821691505b602082108114156200118e576200118d62001194565b5b50919050565b7f4e487b7100000000000000000000000000000000000000000000000000000000600052602260045260246000fd5b6000601f19601f8301169050919050565b6144b180620011e46000396000f3fe608060405234801561001057600080fd5b50600436106101425760003560e01c8063514dc8c6116100b8578063b187301f1161007c578063b187301f146103af578063b88d4fde146103df578063c575757a146103fb578063c87b56dd1461042b578063de9d132f1461045b578063e985e9c51461046557610142565b8063514dc8c6146102e55780636352211e1461031557806370a082311461034557806395d89b4114610375578063a22cb4651461039357610142565b806318160ddd1161010a57806318160ddd146101ff57806323b872dd1461021d5780632de38d68146102395780632f745c591461026957806342842e0e146102995780634f6ccce7146102b557610142565b806301ffc9a714610147578063060475901461017757806306fdde0314610195578063081812fc146101b3578063095ea7b3146101e3575b600080fd5b610161600480360381019061015c9190612dd7565b610495565b60405161016e91906135a2565b60405180910390f35b61017f6104a7565b60405161018c919061387d565b60405180910390f35b61019d6104b6565b6040516101aa91906135bd565b60405180910390f35b6101cd60048036038101906101c89190612e29565b610548565b6040516101da9190613512565b60405180910390f35b6101fd60048036038101906101f89190612d9b565b6105cd565b005b6102076106e5565b604051610214919061387d565b60405180910390f35b61023760048036038101906102329190612c95565b6106f2565b005b610253600480360381019061024e9190612e29565b610752565b60405161026091906135bd565b60405180910390f35b610283600480360381019061027e9190612d9b565b610870565b604051610290919061387d565b60405180910390f35b6102b360048036038101906102ae9190612c95565b610915565b005b6102cf60048036038101906102ca9190612e29565b610935565b6040516102dc919061387d565b60405180910390f35b6102ff60048036038101906102fa9190612e29565b6109cc565b60405161030c91906135bd565b60405180910390f35b61032f600480360381019061032a9190612e29565b610aea565b60405161033c9190613512565b60405180910390f35b61035f600480360381019061035a9190612c30565b610b9c565b60405161036c919061387d565b60405180910390f35b61037d610c54565b60405161038a91906135bd565b60405180910390f35b6103ad60048036038101906103a89190612d5f565b610ce6565b005b6103c960048036038101906103c49190612e29565b610cfc565b6040516103d691906135bd565b60405180910390f35b6103f960048036038101906103f49190612ce4565b610e1a565b005b61041560048036038101906104109190612e29565b610e7c565b60405161042291906135bd565b60405180910390f35b61044560048036038101906104409190612e29565b610f9a565b60405161045291906135bd565b60405180910390f35b610463610fac565b005b61047f600480360381019061047a9190612c59565b6111f9565b60405161048c91906135a2565b60405180910390f35b60006104a082611326565b9050919050565b60006104b16106e5565b905090565b6060600080546104c590613b11565b80601f01602080910402602001604051908101604052809291908181526020018280546104f190613b11565b801561053e5780601f106105135761010080835404028352916020019161053e565b820191906000526020600020905b81548152906001019060200180831161052157829003601f168201915b5050505050905090565b6000610553826113a0565b610592576040517f08c379a00000000000000000000000000000000000000000000000000000000081526004016105899061379d565b60405180910390fd5b6004600083815260200190815260200160002060009054906101000a900473ffffffffffffffffffffffffffffffffffffffff169050919050565b60006105d882610aea565b90508073ffffffffffffffffffffffffffffffffffffffff168373ffffffffffffffffffffffffffffffffffffffff161415610649576040517f08c379a00000000000000000000000000000000000000000000000000000000081526004016106409061381d565b60405180910390fd5b8073ffffffffffffffffffffffffffffffffffffffff1661066861140c565b73ffffffffffffffffffffffffffffffffffffffff16148061069757506106968161069161140c565b6111f9565b5b6106d6576040517f08c379a00000000000000000000000000000000000000000000000000000000081526004016106cd906136dd565b60405180910390fd5b6106e08383611414565b505050565b6000600880549050905090565b6107036106fd61140c565b826114cd565b610742576040517f08c379a00000000000000000000000000000000000000000000000000000000081526004016107399061383d565b60405180910390fd5b61074d8383836115ab565b505050565b6060600061078661076284611807565b60405160200161077291906134ac565b6040516020818303038152906040526119b4565b9050600f80549050816107999190613bbd565b9050600f81815481106107d5577f4e487b7100000000000000000000000000000000000000000000000000000000600052603260045260246000fd5b9060005260206000200180546107ea90613b11565b80601f016020809104026020016040519081016040528092919081815260200182805461081690613b11565b80156108635780601f1061083857610100808354040283529160200191610863565b820191906000526020600020905b81548152906001019060200180831161084657829003601f168201915b5050505050915050919050565b600061087b83610b9c565b82106108bc576040517f08c379a00000000000000000000000000000000000000000000000000000000081526004016108b39061361d565b60405180910390fd5b600660008473ffffffffffffffffffffffffffffffffffffffff1673ffffffffffffffffffffffffffffffffffffffff168152602001908152602001600020600083815260200190815260200160002054905092915050565b61093083838360405180602001604052806000815250610e1a565b505050565b600061093f6106e5565b8210610980576040517f08c379a00000000000000000000000000000000000000000000000000000000081526004016109779061385d565b60405180910390fd5b600882815481106109ba577f4e487b7100000000000000000000000000000000000000000000000000000000600052603260045260246000fd5b90600052602060002001549050919050565b60606000610a006109dc84611807565b6040516020016109ec91906134f0565b6040516020818303038152906040526119b4565b905060128054905081610a139190613bbd565b905060128181548110610a4f577f4e487b7100000000000000000000000000000000000000000000000000000000600052603260045260246000fd5b906000526020600020018054610a6490613b11565b80601f0160208091040260200160405190810160405280929190818152602001828054610a9090613b11565b8015610add5780601f10610ab257610100808354040283529160200191610add565b820191906000526020600020905b815481529060010190602001808311610ac057829003601f168201915b5050505050915050919050565b6000806002600084815260200190815260200160002060009054906101000a900473ffffffffffffffffffffffffffffffffffffffff169050600073ffffffffffffffffffffffffffffffffffffffff168173ffffffffffffffffffffffffffffffffffffffff161415610b93576040517f08c379a0000000000000000000000000000000000000000000000000000000008152600401610b8a9061371d565b60405180910390fd5b80915050919050565b60008073ffffffffffffffffffffffffffffffffffffffff168273ffffffffffffffffffffffffffffffffffffffff161415610c0d576040517f08c379a0000000000000000000000000000000000000000000000000000000008152600401610c04906136fd565b60405180910390fd5b600360008373ffffffffffffffffffffffffffffffffffffffff1673ffffffffffffffffffffffffffffffffffffffff168152602001908152602001600020549050919050565b606060018054610c6390613b11565b80601f0160208091040260200160405190810160405280929190818152602001828054610c8f90613b11565b8015610cdc5780601f10610cb157610100808354040283529160200191610cdc565b820191906000526020600020905b815481529060010190602001808311610cbf57829003601f168201915b5050505050905090565b610cf8610cf161140c565b83836119e7565b5050565b60606000610d30610d0c84611807565b604051602001610d1c9190613445565b6040516020818303038152906040526119b4565b905060108054905081610d439190613bbd565b905060108181548110610d7f577f4e487b7100000000000000000000000000000000000000000000000000000000600052603260045260246000fd5b906000526020600020018054610d9490613b11565b80601f0160208091040260200160405190810160405280929190818152602001828054610dc090613b11565b8015610e0d5780601f10610de257610100808354040283529160200191610e0d565b820191906000526020600020905b815481529060010190602001808311610df057829003601f168201915b5050505050915050919050565b610e2b610e2561140c565b836114cd565b610e6a576040517f08c379a0000000000000000000000000000000000000000000000000000000008152600401610e619061383d565b60405180910390fd5b610e7684848484611b54565b50505050565b60606000610eb0610e8c84611807565b604051602001610e9c9190613423565b6040516020818303038152906040526119b4565b905060118054905081610ec39190613bbd565b905060118181548110610eff577f4e487b7100000000000000000000000000000000000000000000000000000000600052603260045260246000fd5b906000526020600020018054610f1490613b11565b80601f0160208091040260200160405190810160405280929190818152602001828054610f4090613b11565b8015610f8d5780601f10610f6257610100808354040283529160200191610f8d565b820191906000526020600020905b815481529060010190602001808311610f7057829003601f168201915b5050505050915050919050565b6060610fa582611bb0565b9050919050565b601354610fb76106e5565b1115610ff8576040517f08c379a0000000000000000000000000000000000000000000000000000000008152600401610fef906137bd565b60405180910390fd5b6000611004600b611d02565b90506110103382611d10565b600061101b82610752565b9050600061102883610cfc565b9050600061103584610e7c565b9050600083838360405160200161104e9392919061338d565b6040516020818303038152906040529050600061106a866109cc565b90506000600c82600d888888600e60405160200161108e97969594939291906133be565b60405160208183030381529060405290506110dd6040518060400160405280601581526020017f0a2d2d2d2d2d2d2d2d2d2d2d2d2d2d2d2d2d2d2d2d000000000000000000000081525061128d565b6110e68161128d565b6111246040518060400160405280601581526020017f2d2d2d2d2d2d2d2d2d2d2d2d2d2d2d2d2d2d2d2d0a000000000000000000000081525061128d565b60006111588461113384611d2e565b604051602001611144929190613467565b604051602081830303815290604052611d2e565b905060008160405160200161116d91906134ce565b60405160208183030381529060405290506111888982611eec565b611192600b611f60565b7febb98688741ffa4c7589bf325de30cf7becb63de567842e1ccdb6cb949fdc82c338a6040516111c3929190613579565b60405180910390a16111ee604051806060016040528060258152602001614417602591398a33611f76565b505050505050505050565b6000600560008473ffffffffffffffffffffffffffffffffffffffff1673ffffffffffffffffffffffffffffffffffffffff16815260200190815260200160002060008373ffffffffffffffffffffffffffffffffffffffff1673ffffffffffffffffffffffffffffffffffffffff16815260200190815260200160002060009054906101000a900460ff16905092915050565b611323816040516024016112a191906135bd565b6040516020818303038152906040527f41304fac000000000000000000000000000000000000000000000000000000007bffffffffffffffffffffffffffffffffffffffffffffffffffffffff19166020820180517bffffffffffffffffffffffffffffffffffffffffffffffffffffffff8381831617835250505050612015565b50565b60007f780e9d63000000000000000000000000000000000000000000000000000000007bffffffffffffffffffffffffffffffffffffffffffffffffffffffff1916827bffffffffffffffffffffffffffffffffffffffffffffffffffffffff1916148061139957506113988261203e565b5b9050919050565b60008073ffffffffffffffffffffffffffffffffffffffff166002600084815260200190815260200160002060009054906101000a900473ffffffffffffffffffffffffffffffffffffffff1673ffffffffffffffffffffffffffffffffffffffff1614159050919050565b600033905090565b816004600083815260200190815260200160002060006101000a81548173ffffffffffffffffffffffffffffffffffffffff021916908373ffffffffffffffffffffffffffffffffffffffff160217905550808273ffffffffffffffffffffffffffffffffffffffff1661148783610aea565b73ffffffffffffffffffffffffffffffffffffffff167f8c5be1e5ebec7d5bd14f71427d1e84f3dd0314c0f7b2291e5b200ac8c7c3b92560405160405180910390a45050565b60006114d8826113a0565b611517576040517f08c379a000000000000000000000000000000000000000000000000000000000815260040161150e906136bd565b60405180910390fd5b600061152283610aea565b90508073ffffffffffffffffffffffffffffffffffffffff168473ffffffffffffffffffffffffffffffffffffffff16148061159157508373ffffffffffffffffffffffffffffffffffffffff1661157984610548565b73ffffffffffffffffffffffffffffffffffffffff16145b806115a257506115a181856111f9565b5b91505092915050565b8273ffffffffffffffffffffffffffffffffffffffff166115cb82610aea565b73ffffffffffffffffffffffffffffffffffffffff1614611621576040517f08c379a0000000000000000000000000000000000000000000000000000000008152600401611618906137dd565b60405180910390fd5b600073ffffffffffffffffffffffffffffffffffffffff168273ffffffffffffffffffffffffffffffffffffffff161415611691576040517f08c379a00000000000000000000000000000000000000000000000000000000081526004016116889061367d565b60405180910390fd5b61169c838383612120565b6116a7600082611414565b6001600360008573ffffffffffffffffffffffffffffffffffffffff1673ffffffffffffffffffffffffffffffffffffffff16815260200190815260200160002060008282546116f79190613a27565b925050819055506001600360008473ffffffffffffffffffffffffffffffffffffffff1673ffffffffffffffffffffffffffffffffffffffff168152602001908152602001600020600082825461174e9190613946565b92505081905550816002600083815260200190815260200160002060006101000a81548173ffffffffffffffffffffffffffffffffffffffff021916908373ffffffffffffffffffffffffffffffffffffffff160217905550808273ffffffffffffffffffffffffffffffffffffffff168473ffffffffffffffffffffffffffffffffffffffff167fddf252ad1be2c89b69c2b068fc378daa952ba7f163c4a11628f55a4df523b3ef60405160405180910390a4505050565b6060600082141561184f576040518060400160405280600181526020017f300000000000000000000000000000000000000000000000000000000000000081525090506119af565b600082905060005b6000821461188157808061186a90613b74565b915050600a8261187a919061399c565b9150611857565b60008167ffffffffffffffff8111156118c3577f4e487b7100000000000000000000000000000000000000000000000000000000600052604160045260246000fd5b6040519080825280601f01601f1916602001820160405280156118f55781602001600182028036833780820191505090505b5090505b600085146119a85760018261190e9190613a27565b9150600a8561191d9190613bbd565b60306119299190613946565b60f81b818381518110611965577f4e487b7100000000000000000000000000000000000000000000000000000000600052603260045260246000fd5b60200101907effffffffffffffffffffffffffffffffffffffffffffffffffffffffffffff1916908160001a905350600a856119a1919061399c565b94506118f9565b8093505050505b919050565b6000816040516020016119c79190613352565b6040516020818303038152906040528051906020012060001c9050919050565b8173ffffffffffffffffffffffffffffffffffffffff168373ffffffffffffffffffffffffffffffffffffffff161415611a56576040517f08c379a0000000000000000000000000000000000000000000000000000000008152600401611a4d9061369d565b60405180910390fd5b80600560008573ffffffffffffffffffffffffffffffffffffffff1673ffffffffffffffffffffffffffffffffffffffff16815260200190815260200160002060008473ffffffffffffffffffffffffffffffffffffffff1673ffffffffffffffffffffffffffffffffffffffff16815260200190815260200160002060006101000a81548160ff0219169083151502179055508173ffffffffffffffffffffffffffffffffffffffff168373ffffffffffffffffffffffffffffffffffffffff167f17307eab39ab6107e8899845ad3d59bd9653f200f220920489ca2b5937696c3183604051611b4791906135a2565b60405180910390a3505050565b611b5f8484846115ab565b611b6b84848484612130565b611baa576040517f08c379a0000000000000000000000000000000000000000000000000000000008152600401611ba19061363d565b60405180910390fd5b50505050565b6060611bbb826113a0565b611bfa576040517f08c379a0000000000000000000000000000000000000000000000000000000008152600401611bf19061377d565b60405180910390fd5b6000600a60008481526020019081526020016000208054611c1a90613b11565b80601f0160208091040260200160405190810160405280929190818152602001828054611c4690613b11565b8015611c935780601f10611c6857610100808354040283529160200191611c93565b820191906000526020600020905b815481529060010190602001808311611c7657829003601f168201915b505050505090506000611ca46122c7565b9050600081511415611cba578192505050611cfd565b600082511115611cef578082604051602001611cd7929190613369565b60405160208183030381529060405292505050611cfd565b611cf8846122de565b925050505b919050565b600081600001549050919050565b611d2a828260405180602001604052806000815250612385565b5050565b60606000825190506000811415611d575760405180602001604052806000815250915050611ee7565b60006003600283611d689190613946565b611d72919061399c565b6004611d7e91906139cd565b90506000602082611d8f9190613946565b67ffffffffffffffff811115611dce577f4e487b7100000000000000000000000000000000000000000000000000000000600052604160045260246000fd5b6040519080825280601f01601f191660200182016040528015611e005781602001600182028036833780820191505090505b509050600060405180606001604052806040815260200161443c604091399050600181016020830160005b86811015611ea45760038101905062ffffff818a015116603f8160121c168401518060081b905060ff603f83600c1c1686015116810190508060081b905060ff603f8360061c1686015116810190508060081b905060ff603f831686015116810190508060e01b90508084526004840193505050611e2b565b506003860660018114611ebe5760028114611ece57611ed9565b613d3d60f01b6002830352611ed9565b603d60f81b60018303525b508484525050819450505050505b919050565b611ef5826113a0565b611f34576040517f08c379a0000000000000000000000000000000000000000000000000000000008152600401611f2b9061373d565b60405180910390fd5b80600a60008481526020019081526020016000209080519060200190611f5b929190612abc565b505050565b6001816000016000828254019250508190555050565b612010838383604051602401611f8e939291906135df565b6040516020818303038152906040527fe3849f79000000000000000000000000000000000000000000000000000000007bffffffffffffffffffffffffffffffffffffffffffffffffffffffff19166020820180517bffffffffffffffffffffffffffffffffffffffffffffffffffffffff8381831617835250505050612015565b505050565b60008151905060006a636f6e736f6c652e6c6f679050602083016000808483855afa5050505050565b60007f80ac58cd000000000000000000000000000000000000000000000000000000007bffffffffffffffffffffffffffffffffffffffffffffffffffffffff1916827bffffffffffffffffffffffffffffffffffffffffffffffffffffffff1916148061210957507f5b5e139f000000000000000000000000000000000000000000000000000000007bffffffffffffffffffffffffffffffffffffffffffffffffffffffff1916827bffffffffffffffffffffffffffffffffffffffffffffffffffffffff1916145b806121195750612118826123e0565b5b9050919050565b61212b83838361244a565b505050565b60006121518473ffffffffffffffffffffffffffffffffffffffff1661255e565b156122ba578373ffffffffffffffffffffffffffffffffffffffff1663150b7a0261217a61140c565b8786866040518563ffffffff1660e01b815260040161219c949392919061352d565b602060405180830381600087803b1580156121b657600080fd5b505af19250505080156121e757506040513d601f19601f820116820180604052508101906121e49190612e00565b60015b61226a573d8060008114612217576040519150601f19603f3d011682016040523d82523d6000602084013e61221c565b606091505b50600081511415612262576040517f08c379a00000000000000000000000000000000000000000000000000000000081526004016122599061363d565b60405180910390fd5b805181602001fd5b63150b7a0260e01b7bffffffffffffffffffffffffffffffffffffffffffffffffffffffff1916817bffffffffffffffffffffffffffffffffffffffffffffffffffffffff1916149150506122bf565b600190505b949350505050565b606060405180602001604052806000815250905090565b60606122e9826113a0565b612328576040517f08c379a000000000000000000000000000000000000000000000000000000000815260040161231f906137fd565b60405180910390fd5b60006123326122c7565b90506000815111612352576040518060200160405280600081525061237d565b8061235c84611807565b60405160200161236d929190613369565b6040516020818303038152906040525b915050919050565b61238f8383612571565b61239c6000848484612130565b6123db576040517f08c379a00000000000000000000000000000000000000000000000000000000081526004016123d29061363d565b60405180910390fd5b505050565b60007f01ffc9a7000000000000000000000000000000000000000000000000000000007bffffffffffffffffffffffffffffffffffffffffffffffffffffffff1916827bffffffffffffffffffffffffffffffffffffffffffffffffffffffff1916149050919050565b61245583838361273f565b600073ffffffffffffffffffffffffffffffffffffffff168373ffffffffffffffffffffffffffffffffffffffff1614156124985761249381612744565b6124d7565b8173ffffffffffffffffffffffffffffffffffffffff168373ffffffffffffffffffffffffffffffffffffffff16146124d6576124d5838261278d565b5b5b600073ffffffffffffffffffffffffffffffffffffffff168273ffffffffffffffffffffffffffffffffffffffff16141561251a57612515816128fa565b612559565b8273ffffffffffffffffffffffffffffffffffffffff168273ffffffffffffffffffffffffffffffffffffffff1614612558576125578282612a3d565b5b5b505050565b600080823b905060008111915050919050565b600073ffffffffffffffffffffffffffffffffffffffff168273ffffffffffffffffffffffffffffffffffffffff1614156125e1576040517f08c379a00000000000000000000000000000000000000000000000000000000081526004016125d89061375d565b60405180910390fd5b6125ea816113a0565b1561262a576040517f08c379a00000000000000000000000000000000000000000000000000000000081526004016126219061365d565b60405180910390fd5b61263660008383612120565b6001600360008473ffffffffffffffffffffffffffffffffffffffff1673ffffffffffffffffffffffffffffffffffffffff16815260200190815260200160002060008282546126869190613946565b92505081905550816002600083815260200190815260200160002060006101000a81548173ffffffffffffffffffffffffffffffffffffffff021916908373ffffffffffffffffffffffffffffffffffffffff160217905550808273ffffffffffffffffffffffffffffffffffffffff16600073ffffffffffffffffffffffffffffffffffffffff167fddf252ad1be2c89b69c2b068fc378daa952ba7f163c4a11628f55a4df523b3ef60405160405180910390a45050565b505050565b6008805490506009600083815260200190815260200160002081905550600881908060018154018082558091505060019003906000526020600020016000909190919091505550565b6000600161279a84610b9c565b6127a49190613a27565b9050600060076000848152602001908152602001600020549050818114612889576000600660008673ffffffffffffffffffffffffffffffffffffffff1673ffffffffffffffffffffffffffffffffffffffff168152602001908152602001600020600084815260200190815260200160002054905080600660008773ffffffffffffffffffffffffffffffffffffffff1673ffffffffffffffffffffffffffffffffffffffff168152602001908152602001600020600084815260200190815260200160002081905550816007600083815260200190815260200160002081905550505b6007600084815260200190815260200160002060009055600660008573ffffffffffffffffffffffffffffffffffffffff1673ffffffffffffffffffffffffffffffffffffffff16815260200190815260200160002060008381526020019081526020016000206000905550505050565b6000600160088054905061290e9190613a27565b9050600060096000848152602001908152602001600020549050600060088381548110612964577f4e487b7100000000000000000000000000000000000000000000000000000000600052603260045260246000fd5b9060005260206000200154905080600883815481106129ac577f4e487b7100000000000000000000000000000000000000000000000000000000600052603260045260246000fd5b906000526020600020018190555081600960008381526020019081526020016000208190555060096000858152602001908152602001600020600090556008805480612a21577f4e487b7100000000000000000000000000000000000000000000000000000000600052603160045260246000fd5b6001900381819060005260206000200160009055905550505050565b6000612a4883610b9c565b905081600660008573ffffffffffffffffffffffffffffffffffffffff1673ffffffffffffffffffffffffffffffffffffffff168152602001908152602001600020600083815260200190815260200160002081905550806007600084815260200190815260200160002081905550505050565b828054612ac890613b11565b90600052602060002090601f016020900481019282612aea5760008555612b31565b82601f10612b0357805160ff1916838001178555612b31565b82800160010185558215612b31579182015b82811115612b30578251825591602001919060010190612b15565b5b509050612b3e9190612b42565b5090565b5b80821115612b5b576000816000905550600101612b43565b5090565b6000612b72612b6d846138bd565b613898565b905082815260208101848484011115612b8a57600080fd5b612b95848285613acf565b509392505050565b600081359050612bac816143ba565b92915050565b600081359050612bc1816143d1565b92915050565b600081359050612bd6816143e8565b92915050565b600081519050612beb816143e8565b92915050565b600082601f830112612c0257600080fd5b8135612c12848260208601612b5f565b91505092915050565b600081359050612c2a816143ff565b92915050565b600060208284031215612c4257600080fd5b6000612c5084828501612b9d565b91505092915050565b60008060408385031215612c6c57600080fd5b6000612c7a85828601612b9d565b9250506020612c8b85828601612b9d565b9150509250929050565b600080600060608486031215612caa57600080fd5b6000612cb886828701612b9d565b9350506020612cc986828701612b9d565b9250506040612cda86828701612c1b565b9150509250925092565b60008060008060808587031215612cfa57600080fd5b6000612d0887828801612b9d565b9450506020612d1987828801612b9d565b9350506040612d2a87828801612c1b565b925050606085013567ffffffffffffffff811115612d4757600080fd5b612d5387828801612bf1565b91505092959194509250565b60008060408385031215612d7257600080fd5b6000612d8085828601612b9d565b9250506020612d9185828601612bb2565b9150509250929050565b60008060408385031215612dae57600080fd5b6000612dbc85828601612b9d565b9250506020612dcd85828601612c1b565b9150509250929050565b600060208284031215612de957600080fd5b6000612df784828501612bc7565b91505092915050565b600060208284031215612e1257600080fd5b6000612e2084828501612bdc565b91505092915050565b600060208284031215612e3b57600080fd5b6000612e4984828501612c1b565b91505092915050565b612e5b81613a5b565b82525050565b612e6a81613a6d565b82525050565b6000612e7b82613903565b612e858185613919565b9350612e95818560208601613ade565b612e9e81613caa565b840191505092915050565b6000612eb48261390e565b612ebe818561392a565b9350612ece818560208601613ade565b612ed781613caa565b840191505092915050565b6000612eed8261390e565b612ef7818561393b565b9350612f07818560208601613ade565b80840191505092915050565b60008154612f2081613b11565b612f2a818661393b565b94506001821660008114612f455760018114612f5657612f89565b60ff19831686528186019350612f89565b612f5f856138ee565b60005b83811015612f8157815481890152600182019150602081019050612f62565b838801955050505b50505092915050565b6000612f9f602b8361392a565b9150612faa82613cbb565b604082019050919050565b6000612fc260328361392a565b9150612fcd82613d0a565b604082019050919050565b6000612fe5601c8361392a565b9150612ff082613d59565b602082019050919050565b6000613008600a8361393b565b915061301382613d82565b600a82019050919050565b600061302b60248361392a565b915061303682613dab565b604082019050919050565b600061304e60198361392a565b915061305982613dfa565b602082019050919050565b600061307160638361393b565b915061307c82613e23565b606382019050919050565b6000613094600b8361393b565b915061309f82613ebe565b600b82019050919050565b60006130b7602c8361392a565b91506130c282613ee7565b604082019050919050565b60006130da60388361392a565b91506130e582613f36565b604082019050919050565b60006130fd602a8361392a565b915061310882613f85565b604082019050919050565b600061312060298361392a565b915061312b82613fd4565b604082019050919050565b6000613143602e8361392a565b915061314e82614023565b604082019050919050565b600061316660028361393b565b915061317182614072565b600282019050919050565b600061318960208361392a565b91506131948261409b565b602082019050919050565b60006131ac60318361392a565b91506131b7826140c4565b604082019050919050565b60006131cf602c8361392a565b91506131da82614113565b604082019050919050565b60006131f260178361392a565b91506131fd82614162565b602082019050919050565b600061321560298361392a565b91506132208261418b565b604082019050919050565b6000613238602f8361392a565b9150613243826141da565b604082019050919050565b600061325b600a8361393b565b915061326682614229565b600a82019050919050565b600061327e60218361392a565b915061328982614252565b604082019050919050565b60006132a1600a8361393b565b91506132ac826142a1565b600a82019050919050565b60006132c4601d8361393b565b91506132cf826142ca565b601d82019050919050565b60006132e760318361392a565b91506132f2826142f3565b604082019050919050565b600061330a602c8361392a565b915061331582614342565b604082019050919050565b600061332d60058361393b565b915061333882614391565b600582019050919050565b61334c81613ac5565b82525050565b600061335e8284612ee2565b915081905092915050565b60006133758285612ee2565b91506133818284612ee2565b91508190509392505050565b60006133998286612ee2565b91506133a58285612ee2565b91506133b18284612ee2565b9150819050949350505050565b60006133ca828a612f13565b91506133d68289612ee2565b91506133e28288612f13565b91506133ee8287612ee2565b91506133fa8286612ee2565b91506134068285612ee2565b91506134128284612f13565b915081905098975050505050505050565b600061342e82612ffb565b915061343a8284612ee2565b915081905092915050565b600061345082613087565b915061345c8284612ee2565b915081905092915050565b60006134728261324e565b915061347e8285612ee2565b915061348982613064565b91506134958284612ee2565b91506134a082613159565b91508190509392505050565b60006134b782613294565b91506134c38284612ee2565b915081905092915050565b60006134d9826132b7565b91506134e58284612ee2565b915081905092915050565b60006134fb82613320565b91506135078284612ee2565b915081905092915050565b60006020820190506135276000830184612e52565b92915050565b60006080820190506135426000830187612e52565b61354f6020830186612e52565b61355c6040830185613343565b818103606083015261356e8184612e70565b905095945050505050565b600060408201905061358e6000830185612e52565b61359b6020830184613343565b9392505050565b60006020820190506135b76000830184612e61565b92915050565b600060208201905081810360008301526135d78184612ea9565b905092915050565b600060608201905081810360008301526135f98186612ea9565b90506136086020830185613343565b6136156040830184612e52565b949350505050565b6000602082019050818103600083015261363681612f92565b9050919050565b6000602082019050818103600083015261365681612fb5565b9050919050565b6000602082019050818103600083015261367681612fd8565b9050919050565b600060208201905081810360008301526136968161301e565b9050919050565b600060208201905081810360008301526136b681613041565b9050919050565b600060208201905081810360008301526136d6816130aa565b9050919050565b600060208201905081810360008301526136f6816130cd565b9050919050565b60006020820190508181036000830152613716816130f0565b9050919050565b6000602082019050818103600083015261373681613113565b9050919050565b6000602082019050818103600083015261375681613136565b9050919050565b600060208201905081810360008301526137768161317c565b9050919050565b600060208201905081810360008301526137968161319f565b9050919050565b600060208201905081810360008301526137b6816131c2565b9050919050565b600060208201905081810360008301526137d6816131e5565b9050919050565b600060208201905081810360008301526137f681613208565b9050919050565b600060208201905081810360008301526138168161322b565b9050919050565b6000602082019050818103600083015261383681613271565b9050919050565b60006020820190508181036000830152613856816132da565b9050919050565b60006020820190508181036000830152613876816132fd565b9050919050565b60006020820190506138926000830184613343565b92915050565b60006138a26138b3565b90506138ae8282613b43565b919050565b6000604051905090565b600067ffffffffffffffff8211156138d8576138d7613c7b565b5b6138e182613caa565b9050602081019050919050565b60008190508160005260206000209050919050565b600081519050919050565b600081519050919050565b600082825260208201905092915050565b600082825260208201905092915050565b600081905092915050565b600061395182613ac5565b915061395c83613ac5565b9250827fffffffffffffffffffffffffffffffffffffffffffffffffffffffffffffffff0382111561399157613990613bee565b5b828201905092915050565b60006139a782613ac5565b91506139b283613ac5565b9250826139c2576139c1613c1d565b5b828204905092915050565b60006139d882613ac5565b91506139e383613ac5565b9250817fffffffffffffffffffffffffffffffffffffffffffffffffffffffffffffffff0483118215151615613a1c57613a1b613bee565b5b828202905092915050565b6000613a3282613ac5565b9150613a3d83613ac5565b925082821015613a5057613a4f613bee565b5b828203905092915050565b6000613a6682613aa5565b9050919050565b60008115159050919050565b60007fffffffff0000000000000000000000000000000000000000000000000000000082169050919050565b600073ffffffffffffffffffffffffffffffffffffffff82169050919050565b6000819050919050565b82818337600083830152505050565b60005b83811015613afc578082015181840152602081019050613ae1565b83811115613b0b576000848401525b50505050565b60006002820490506001821680613b2957607f821691505b60208210811415613b3d57613b3c613c4c565b5b50919050565b613b4c82613caa565b810181811067ffffffffffffffff82111715613b6b57613b6a613c7b565b5b80604052505050565b6000613b7f82613ac5565b91507fffffffffffffffffffffffffffffffffffffffffffffffffffffffffffffffff821415613bb257613bb1613bee565b5b600182019050919050565b6000613bc882613ac5565b9150613bd383613ac5565b925082613be357613be2613c1d565b5b828206905092915050565b7f4e487b7100000000000000000000000000000000000000000000000000000000600052601160045260246000fd5b7f4e487b7100000000000000000000000000000000000000000000000000000000600052601260045260246000fd5b7f4e487b7100000000000000000000000000000000000000000000000000000000600052602260045260246000fd5b7f4e487b7100000000000000000000000000000000000000000000000000000000600052604160045260246000fd5b6000601f19601f8301169050919050565b7f455243373231456e756d657261626c653a206f776e657220696e646578206f7560008201527f74206f6620626f756e6473000000000000000000000000000000000000000000602082015250565b7f4552433732313a207472616e7366657220746f206e6f6e20455243373231526560008201527f63656976657220696d706c656d656e7465720000000000000000000000000000602082015250565b7f4552433732313a20746f6b656e20616c7265616479206d696e74656400000000600082015250565b7f54484952445f574f524400000000000000000000000000000000000000000000600082015250565b7f4552433732313a207472616e7366657220746f20746865207a65726f2061646460008201527f7265737300000000000000000000000000000000000000000000000000000000602082015250565b7f4552433732313a20617070726f766520746f2063616c6c657200000000000000600082015250565b7f222c20226465736372697074696f6e223a20224120686967686c79206163636c60008201527f61696d656420636f6c6c656374696f6e206f6620737175617265732e222c202260208201527f696d616765223a2022646174613a696d6167652f7376672b786d6c3b6261736560408201527f36342c0000000000000000000000000000000000000000000000000000000000606082015250565b7f5345434f4e445f574f5244000000000000000000000000000000000000000000600082015250565b7f4552433732313a206f70657261746f7220717565727920666f72206e6f6e657860008201527f697374656e7420746f6b656e0000000000000000000000000000000000000000602082015250565b7f4552433732313a20617070726f76652063616c6c6572206973206e6f74206f7760008201527f6e6572206e6f7220617070726f76656420666f7220616c6c0000000000000000602082015250565b7f4552433732313a2062616c616e636520717565727920666f7220746865207a6560008201527f726f206164647265737300000000000000000000000000000000000000000000602082015250565b7f4552433732313a206f776e657220717565727920666f72206e6f6e657869737460008201527f656e7420746f6b656e0000000000000000000000000000000000000000000000602082015250565b7f45524337323155524953746f726167653a2055524920736574206f66206e6f6e60008201527f6578697374656e7420746f6b656e000000000000000000000000000000000000602082015250565b7f227d000000000000000000000000000000000000000000000000000000000000600082015250565b7f4552433732313a206d696e7420746f20746865207a65726f2061646472657373600082015250565b7f45524337323155524953746f726167653a2055524920717565727920666f722060008201527f6e6f6e6578697374656e7420746f6b656e000000000000000000000000000000602082015250565b7f4552433732313a20617070726f76656420717565727920666f72206e6f6e657860008201527f697374656e7420746f6b656e0000000000000000000000000000000000000000602082015250565b7f4e6f206d6f7265204e46547320617661696c61626c652e000000000000000000600082015250565b7f4552433732313a207472616e73666572206f6620746f6b656e2074686174206960008201527f73206e6f74206f776e0000000000000000000000000000000000000000000000602082015250565b7f4552433732314d657461646174613a2055524920717565727920666f72206e6f60008201527f6e6578697374656e7420746f6b656e0000000000000000000000000000000000602082015250565b7f7b226e616d65223a202200000000000000000000000000000000000000000000600082015250565b7f4552433732313a20617070726f76616c20746f2063757272656e74206f776e6560008201527f7200000000000000000000000000000000000000000000000000000000000000602082015250565b7f46495253545f574f524400000000000000000000000000000000000000000000600082015250565b7f646174613a6170706c69636174696f6e2f6a736f6e3b6261736536342c000000600082015250565b7f4552433732313a207472616e736665722063616c6c6572206973206e6f74206f60008201527f776e6572206e6f7220617070726f766564000000000000000000000000000000602082015250565b7f455243373231456e756d657261626c653a20676c6f62616c20696e646578206f60008201527f7574206f6620626f756e64730000000000000000000000000000000000000000602082015250565b7f434f4c4f52000000000000000000000000000000000000000000000000000000600082015250565b6143c381613a5b565b81146143ce57600080fd5b50565b6143da81613a6d565b81146143e557600080fd5b50565b6143f181613a79565b81146143fc57600080fd5b50565b61440881613ac5565b811461441357600080fd5b5056fe416e204e465420772f20494420257320686173206265656e206d696e74656420746f2025734142434445464748494a4b4c4d4e4f505152535455565758595a6162636465666768696a6b6c6d6e6f707172737475767778797a303132333435363738392b2fa2646970667358221220fa9455c2ada35704fad877cc20f676b56d05dc0771a050b8ae8a18185b8a5e7d64736f6c634300080400333c73766720786d6c6e733d27687474703a2f2f7777772e77332e6f72672f323030302f73766727207072657365727665417370656374526174696f3d27784d696e594d696e206d656574272076696577426f783d273020302033353020333530273e3c7374796c653e2e62617365207b2066696c6c3a2077686974653b20666f6e742d66616d696c793a2073657269663b20666f6e742d73697a653a20323470783b207d3c2f7374796c653e3c726563742077696474683d273130302527206865696768743d2731303025272066696c6c3d27272f3e3c7465787420783d273530252720793d273530252720636c6173733d27626173652720646f6d696e616e742d626173656c696e653d276d6964646c652720746578742d616e63686f723d276d6964646c65273e",
  "linkReferences": {},
  "deployedLinkReferences": {}
}